:1000000000000110E500000075010000590100002A
:100010007501000075010000750100007501000008
:10002000750100007501000075010000051D00004C
:100030007501000075010000091D00000D1D000084
:10004000653B0000653B0000653B0000653B000030
:10005000653B0000653B0000653B0000653B000020
:10006000653B0000653B0000653B0000653B000010
:10007000653B0000653B0000653B0000653B000000
:10008000653B0000653B0000653B0000653B0000F0
:10009000653B0000653B0000653B0000653B0000E0
:1000A000653B0000653B0000653B0000653B0000D0
:1000B000653B0000653B0000653B0000653B0000C0
:1000C000653B0000653B0000653B0000653B0000B0
:1000D000653B0000653B0000653B0000653B0000A0
:1000E000653B000008B500F057F900F073F900F027
:1000F0009DF800F079F900F095F800F0F7FF00F0B6
:1001000021FF00F0BFF840B141F28734002501F033
:1001100019F88D4208BF8442F9D200F0B7F918B936
:100120000849094805F00EFC0649084805F00AFC94
:1001300003F0AAFF064B07481B68D96804F098FB38
:10014000FEE700BFC4960000D0960000FD960000B8
:1001500054410010159700001EF0040F0CBFEFF380
:100160000880EFF309808169004A1047D10100003F
:100170007047FFFF38B50F4C0F4B10481D782368B0
:10018000D96804F075FB23680D49D8682A4604F045
:10019000F7FA0F2D236807D80A4A0B4952F8252091
:1001A000D86804F0EDFAFEE7D968084804F060FB6F
:1001B000F9E700BF5441001004ED00E05097000043
:1001C0006A9700005C980000A4970000C2970000A6
:1001D00010B5044600F04AF8236883606368C36082
:1001E000A3680361E3684361236943626369013B78
:1001F000C361A3698361E3690362BFF34F8F05495C
:10020000054BCA6802F4E0621343CB60BFF34F8F23
:1002100000BFFDE700ED00E00400FA05004870476C
:1002200000D8B8050048704700D8B8050E4B072223
:10023000C3F88420AA210122C3F88020C3F88C10BF
:100240005521C3F88C10C3F8A821D3F88820520593
:10025000FBD51A6822F4704242F480421A6040F2E0
:100260000112C3F80421704700C00F400248034A3E
:10027000034BC0E90023704700000020EFBEADDE55
:100280001041522138B5224C224B22689A423DD16E
:100290006268214B9A4239D1204D21482B68D96898
:1002A00004F0E6FA2B68A2691E49D86804F068FADF
:1002B0002B68E2691C49D86804F062FA2B68226A4C
:1002C0001A49D86804F05CFA2B68A2681849D86803
:1002D00004F056FA2B68E2681649D86804F050FA20
:1002E0002B6822691449D86804F04AFA2B686269BD
:1002F0001249D86804F044FA2B681148D96804F010
:10030000B7FA01200023C4E9003338BD0020F9E723
:1003100000000020EFBEADDE10415221544100101C
:100320009C980000EF980000FE9800000D990000D6
:100330001C9900002B9900003A990000499900008F
:10034000589900000E4A136810B50E4C1918A142B6
:10035000116002D30C4CA1420BD313600B4A0C4921
:1003600013681844884208D30A49884205D21060AD
:1003700001E0002BF2D0184610BD0023FBE700BFC0
:100380000000001028000020008000200400001061
:10039000945B001000000110094A0A4B0A498B4285
:1003A00005D30A4B0A4A0021934205D3704712F83D
:1003B000010B03F8010BF2E703F8011BF4E700BFA0
:1003C0003CA8000000000010284300102843001043
:1003D000945B0010034AD2F8883043F47003C2F8EB
:1003E0008830704700ED00E0044800232021C21847
:1003F0000133292B82F80013F9D1704700E100E0A6
:1004000008B52A2219233821022003F09DFB0D2272
:100410003821022003F054FBA0F12A03584258412E
:1004200008BD1FB500230293ADF80C300623044627
:100430000093012202AB3821022003F017FB9DF844
:100440000A209DF80B309DF80C109DF8080043EA37
:1004500002231BB2002BB8BF0F331A119DF80D30C9
:10046000628043EA01239DF809101BB241EA002192
:10047000002B09B2B8BF0F330029B8BF0F311B11D1
:10048000091120462180A38004B010BDFFF7B8BF3A
:1004900042884378007843EA022340EA0320704709
:1004A00010B5024410F8013B11F8014B9042A3EB48
:1004B000040301D0002BF5D0184610BD02684AB1E4
:1004C000134613F8011B1F290BD93A29F9D1911CA6
:1004D0008B4202D04FF0FF3070471278302AF9D1AA
:1004E00003600020704770B500F13806426B044687
:1004F00001233146407800F05FFA054688B9616B08
:10050000A36A226AE070CB1A934208D2A378022B26
:1005100005D10A4401233146607800F04DFA28469F
:1005200070BD0125FBE738B5436B8B4204460D4691
:1005300019D0C3788BB901232A4604F138016078B9
:1005400000F026FA002818BF4FF0FF350346656318
:100550000CBF03460123184638BDFFF7C4FF03460E
:100560000028F8D1E7E70023F5E7FFFF38B50023BF
:10057000C3704FF0FF3343630546FFF7D4FF0446D3
:1005800018BB95F8372295F8363243EA02234AF62B
:10059000552293421BD195F83830EB2B03D01833FA
:1005A000DBB2012B15D803220B4905F16E00FFF7D2
:1005B00077FF40B10522094905F18A00FFF770FF76
:1005C000002818BF0224204638BD0424FBE703247A
:1005D000F9E70224F7E700BF2C9A0000309A0000E8
:1005E0002DE9F043002385B00B600F461546FFF759
:1005F00065FF061EC0F23981A44B53F82640002C3B
:1006000000F03581206900F0A2F9002800F0318166
:100610003C60237805F0FE056BB1607800F0B3F91B
:10062000C10708D41DB110F0040500D00A252846E2
:1006300005B0BDE8F0830023F0B22370607000F0D5
:1006400094F9C20700F117810DB14307EED40021E0
:100650002046FFF78BFF022840F0EE806F4604F53E
:10066000FF7104F23E263D4611F8040C10B1084615
:10067000FFF70EFF10318E4245F8040BF4D1002530
:1006800057F8046B002E00F0CE8031462046FFF76D
:100690006DFF012800F2C88094F8442094F843309C
:1006A00043EA0223B3F5007F40F0CA8094F84F304C
:1006B00094F84E5055EA032504D104F15C00FFF78D
:1006C000E7FE054694F8481025624B1E012BA170E9
:1006D00000F2B68094F845901FFA89F36381002BED
:1006E00000F0AE8009F1FF3313EA090F40F0A88053
:1006F00094F84A3094F8497047EA03273FB21FFA4A
:1007000087F818F00F0FA4F8088040F0998094F84B
:100710004C3094F84B0050EA032003D104F1580008
:10072000FFF7B6FE94F8472094F8463053EA0223C8
:1007300000F0868005FB01FC03EB18126244904236
:100740007ED3801A4845B0FBF9F179D350488142F5
:1007500076D84FF6F570814240F28F804FF0030952
:10076000023133443244B9F1030FE1616662A3629E
:10077000226369D194F8632094F8623043EA02233B
:100780001F433FB2002F5BD104F16400FFF780FEEE
:10079000E062890001F2FF11B5EB512F50D34FF009
:1007A000FF33C4E90533B9F1030F4FF08003237120
:1007B0002FD194F8692094F8683043EA0223012B82
:1007C00027D1711C2046FFF7AEFE10BB94F83722EC
:1007D00094F83632207143EA02234AF655229342B6
:1007E00017D104F13800FFF753FE2A4B984210D17D
:1007F00004F50770FFF74CFE274B984209D104F52A
:100800000870FFF745FEA06104F50970FFF740FE90
:100810006061224A84F80090138801339BB21380F0
:10082000E380002503E703200135042D7FF428AF82
:10083000042805D10125FAE60428FBD0012801D9B6
:100840000D25F4E6002627E7B8F1000FF8D0634441
:10085000B9F1020FE3624FEA41031BBF5B1801F0DD
:100860000101194601EB530194E70B25DFE60C2546
:10087000DDE60F25DBE60325D9E640F6F5794945A7
:100880008CBF4FF002094FF0010969E728430010BF
:10089000F5FFFF0F52526141727241612C4300100B
:1008A00040B1A1F10B03012B04D90F2902D000693B
:1008B00000F056B87047FFFFF0B585B0CDE90010E5
:1008C00003A814460391FFF7F9FD051E28DB154F19
:1008D00057F825604EB1306900F034F818B9022499
:1008E000204605B0F0BD00233370019979B9019B12
:1008F00047F82530002CF3D001A900226846FFF705
:100900006FFE044601460198FFF7CAFFE8E700239F
:1009100001F8103BE8B200F007F80028E7D1DEE765
:100920000B24DDE72843001010B501200C460449D4
:1009300001F0B6FD2060003018BF012010BD00BFDF
:100940003043001008B502F03DF8012008BD08B59D
:1009500040F6B83101F01EFF431E5842584108BD11
:1009600000231A46194601F0EDBC10B5044600F00C
:100970007FFB34B900F0FAF8044600F093FB204600
:1009800010BD0424F9E708B900F08EB904207047BF
:10099000F8B507460C4615461E4600F069FB4FB9F0
:1009A0002046F2B2294600F087F9044600F07AFBAF
:1009B0002046F8BD0424F9E7F8B507460C4615466D
:1009C0001E4600F055FB4FB92046F2B2294600F012
:1009D000B9F9044600F066FB2046F8BD0424F9E7A7
:1009E00038B500F0AFFB00F5FA75FF2003F094F97D
:1009F000FF2003F091F9FF28044603D000F0A2FB8A
:100A00008542F5D8204638BD08B502F0A3FDFFF7B2
:100A1000E7FF02F0A7FD034A137843F001031370C8
:100A200008BD00BF0800001038B505460C46FFF7AA
:100A3000D7FFFF2821D1204603F06EF9FD2C1ED0F0
:100A4000AC1C05F2022514F8020C03F065F902341F
:100A500014F8030C03F060F9AC42F4D1FF2003F06A
:100A60005BF9FF2003F058F9FF2003F055F900F07F
:100A70001F00431F5842584138BD0020FCE70120A9
:100A8000FAE737B5020604460D4607D50021772060
:100A9000FFF7F7FF012831D804F07F0402F062FD70
:100AA00002F058FDFFF79CFFFF282BD1402C27D0E8
:100AB000482C0CBF872301232A0E8DF801202A0C15
:100AC0008DF8022006212A0A68468DF800408DF82C
:100AD00003208DF804508DF8053003F027F94C2CD5
:100AE00002D1FF2003F018F90A24FF2003F014F9C3
:100AF000030603D5013C14F0FF04F6D103B030BD6A
:100B00009523D9E7FF20F9E770B5054600F01AFBF9
:100B100000F16406FF2003F0FFF8044600F012FB2A
:100B2000864201D3FF2CF5D0FE2C0CD14FF400717E
:100B3000284603F0FEF8FF2003F0EEF8FF2003F054
:100B4000EBF8012070BD0020FCE7FFFF38B5064D33
:100B50002C78E4B202F00EFD18B104F0FD042C7004
:100B600038BD44F00304FAE7080000102DE9F34112
:100B7000FFF7ECFF4A4B1A7812F0020F1E4604D022
:100B80001878C0B202B0BDE8F081C82003F08CF83C
:100B90000A25FF20013D03F0BFF815F0FF05F8D14D
:100BA00002F0D8FC29464020FFF76BFF01280446DD
:100BB00071D100F0C7FA4FF4D57100F57A7748206B
:100BC000FFF75FFF012848D101ADA8460424FF20AC
:100BD00003F0A2F8013C14F0FF0408F8010BF6D171
:100BE0009DF80630012B56D19DF80730AA2B52D123
:100BF00000F0A8FA874206D94FF08041E920FFF7BC
:100C000040FF0028F4D100F09DFA874243D900212B
:100C10007A20FFF736FF00283DD10424FF2003F09F
:100C20007BF8013C14F0FF0405F8010BF6D19DF8A8
:100C3000043013F0400F14BF0C240424194B1C7013
:100C400002F090FC4CB3337845F6C05003F0FE033D
:100C5000337003F029F8307893E72946E920FFF74D
:100C600010FF022836BFE9254125022400F06AFA68
:100C7000874205D900212846FFF703FF0028F5D158
:100C800000F060FA874206D84FF400715020FFF759
:100C9000F8FE0028D2D00024D0E7FFF7B5FEDAE74F
:100CA000080000108043001008B5FFF74FFF014B0C
:100CB000187808BD0800001070B5144605460E46A9
:100CC000FFF744FF002C35D01C4B1B78DA0733D4D8
:100CD00002F040FC1A4B1B781B0758BF7602012C10
:100CE000314611D15120FFF7CCFE38B94FF40071D5
:100CF0002846FFF709FFB0FA80F4640902F032FCDD
:100D0000201C18BF012070BD5220FFF7BAFE00283A
:100D1000F4D14FF400712846FFF7F6FE28B1013CEC
:100D200014F0FF0405F50075F3D100214C20FFF706
:100D3000A8FEE3E70420E6E70320E4E7080000104C
:100D40008043001070B5144605460E46FFF7FEFEC0
:100D5000002C41D0234B1A78D0073FD41B78590779
:100D60003ED402F0F7FB204B1B781A0758BF7602DF
:100D7000012C11D131465820FFF783FE50BBFE21D4
:100D80002846FFF751FEB0FA80F4640902F0EAFB4E
:100D9000201C18BF012070BD13F0060F03D02146A0
:100DA000D720FFF76EFE31465920FFF76AFE002874
:100DB000ECD1FC212846FFF737FE28B1013C14F0A6
:100DC000FF0405F50075F4D1FD210020FFF72CFE8E
:100DD0000028DBD10124D9E70420DCE70320DAE78F
:100DE0000220D8E7080000108043001008B506462E
:100DF00004F062FF00240546A54200DCFEE7315DF9
:100E0000002003F08BF80134F6E7FFFF02280CD92D
:100E1000074B1B685A68824207D09A68824204D006
:100E2000DB681B1A5842584170470120704700BFC9
:100E30005441001008B50148FFF7D8FF369A00006A
:100E40000020704700207047F8B504460E4615464E
:100E5000FFF7DCFF48B3164B1B68DB68A34210D0DA
:100E6000A31E5C425C4102F0D1F90746002003F06A
:100E700009F8022F17D1B0B1ACB9A54203DC28465E
:100E8000F8BD0124EFE7315D4FF0FF32002003F0A1
:100E9000A5F80134F1E7315D002003F03FF801349B
:100EA000A542F8DCEBE70024FAE70248FFF79EFFD3
:100EB000544100108E9A000038B50C46FFF7A6FF8B
:100EC000A8B102F0A3F90546002002F0E5FF022DCB
:100ED00008D138B14FF0FF322146002003F030F83E
:100EE000012038BD2146002003F050F8F8E7014802
:100EF000FFF77CFF5C9A0000F8B504460D4600F051
:100F00000BF9061941EB050702F080F902280CD114
:100F100000234FF47A72AB4208BFA24205D22046AA
:100F2000294603F0ABFA02F043F800F0F5F8B942B5
:100F300008BFB042F9D3F8BD4FF47A73A0FB0301A8
:100F4000FFF7DABF30B585B002F082FA02F01CFB81
:100F50008DF80C0002F01EFB8DF80D0002F020FB56
:100F60008DF80E0002F022FB00248DF80F0004AA79
:100F700004F003031344013413F8040C02F0E2FB01
:100F80003220FFF7D9FF202CF1D1294B186800231C
:100F900019460222406804F0A7FDFFF743F9002537
:100FA00001464FF4E132002002F028FF0095214B6A
:100FB000214A0121204601F07BF9204B009504468F
:100FC0001F4A0121802001F073F92246014628467C
:100FD00002F06CFF45F6C05002F07CFE0122194978
:100FE0001948FFF769FC194A194B1A49A84208BF6A
:100FF0001346194A19481A4D04F0A4FCFFF712F9D8
:10100000184B00930246184B1849022002F0D2FCFC
:101010000224E1B2022002F08BFD18B121462846DD
:1010200004F090FC0234B4F5807FF2D105B030BDFD
:101030005441001044440010244400104C47001058
:10104000CC460010C09B000094440010D29A0000CF
:10105000F09A0000179B0000C19A0000689B0000F6
:10106000889B0000D443001084430010801A0600BF
:1010700010B50A4C236823B90949012001F010FA80
:10108000206002F0C3F8022806D120684FF0FF313B
:10109000BDE8104001F07EBB10BD00BF9C470010B2
:1010A000A047001010B502F0B1F8022808D1054899
:1010B00000231A4619460068BDE8104001F042B905
:1010C00010BD00BF9C470010074A08B513680021F7
:1010D00001330846136002F08FFB00210846BDE88B
:1010E000084002F075BB00BFF047001008B5074A82
:1010F0000749B0FBF1F10020013902F033FB002178
:10110000044A0846BDE8084002F050BBC910000080
:1011100040420F000087930370B5084E002002F094
:1011200063FB05460020346802F05EFB8542F5D87B
:10113000034B0021E3FB040170BD00BFF04700102A
:101140000087930308B5FFF7E7FF4FF47A72002397
:1011500003F094F908BD70B5054608460C4604F046
:10116000ABFD2618B44205D128460A21BDE87040DF
:1011700002F0D4BE14F8011B284602F0CFFEF1E7BE
:101180002DE9F74F824604F06BFC052390FBF3F347
:1011900003EB8303C31ADCB2002606EB46030833D5
:1011A000B2455FFA83FB02DC03B0BDE8F08F002597
:1011B000174B1B5D00270BEB07094FF000085FFA88
:1011C00089F905EB08011A46C9B2484608F1010839
:1011D000019300F0C5FCB8F1080F019BF1D1013774
:1011E000032FE8D1042C05F1080518BF0134EDB236
:1011F00014BFE4B20024402DDAD104F031FC052301
:1012000090FBF3F303EB8303C31ADCB20136C4E7AC
:10121000AF9B0000F8B50838032390FBF3F303EB12
:101220004303DBB203F108050B3301F0F806EDB21E
:10123000DCB20027F1190022C9B22846013700F0BC
:101240008FFC082FF6D10135EDB2AC42F1D1F8BDDB
:1012500003280CD8DFE800F002070509044800F075
:10126000EBBC0448FBE70448F9E70448F7E770479C
:1012700009100010093000100920001009000010AA
:101280000C4B1A7852B20332062A07D8DFE802F074
:10129000040709060B0D0F0003221A707047022283
:1012A000FBE70122F9E7FF22F7E7FE22F5E7FD223F
:1012B000F3E700BF0940001008B5094B09481B6857
:1012C000D96803F0D5FA084B1A68022ADEBF1A68FB
:1012D00001321A60054AD36843F00053D36008BD59
:1012E00054410010F59B0000F84700108080024038
:1012F0002DE9F843124F134D8146884600243E469F
:101300003B78A3420ADC104B85F80090002483F858
:1013100000803378A3420ADCBDE8F88329782144B1
:101320000022C9B23F2000F01BFC0134E8E7297815
:1013300021440722C9B23F2000F012FC0134E8E743
:1013400001480010024800100048001038B51E4C3B
:10135000A378032B06D8DFE803F012022F282378A6
:10136000082B01D100201FE0207861780138C0B23D
:1013700000F08EFA05462078617801390CE0237878
:10138000082BEFD0207861780138C0B200F080FAE5
:101390000546207861780131C9B200F079FA002859
:1013A000E0D0281C18BF012038BD2378202BD9D8C5
:1013B000207861780130E8E72378202BD2D8207894
:1013C00061780130D3E700BFF447001008B51D2154
:1013D000002002F051F9064A0649136943F0005310
:1013E00013612620044ABDE8084002F0F9BB00BFA3
:1013F00080800240B9120000E79B000058B90C4BF6
:101400001A78A2B118780B4B197801380139C9B292
:10141000C0B2FFF76DBF012809D1064B1A783F2AE9
:1014200005D0034A1078197801300131EFE7704791
:101430000248001000480010964A13782DE9F04742
:101440009046032B06D8DFE803F0020E10120020AE
:10145000FFF7FEFE904B1A68002A40F0E18188F801
:101460000020BDE8F0870220F2E70120F0E78B4E74
:101470003378002B3AD00320FFF7EAFE884DDFF8DF
:101480003092DFF824A2002404F11E07FFB20722E5
:1014900039463F2000F064FB022C14D10622394665
:1014A0003E2000F05DFB3E236F702B700023AB707D
:1014B0006B78DBB289F801302B78DBB289F8003029
:1014C00005238AF800300134052CDDD1754B1E222E
:1014D0001A70754A1B7812781344013B734ADBB2C9
:1014E00008201370FFF74CFE002333706C4C704DD6
:1014F00000F0BCF920786178002200F031FBA3787D
:10150000032B11D8DFE803F002426F55694A617876
:10151000137841FA83F33F2B41DD3F236B7023782F
:10152000DBB2082B41D12B702878697800F0B0F934
:101530002878697800F0ACF900285DD00638C0B290
:10154000012894BF002701272B786E7828786978C6
:10155000F6B23F2E1ABFB6FA86F67609012600F0DB
:1015600097F907284AD1544B54481B68D96803F0AF
:101570007FF901222B786978DBB2002F7DD1A17829
:10158000032941D8DFE801F03C4C6350494A6178B7
:10159000137841FA83F3002B01DA0023BEE71378B6
:1015A0006A7842FA83F3DBB2B8E72378013BDBB217
:1015B000B9E7404B61781A7841FA82F23F2A04DD9C
:1015C0003F236B7023780133F1E761781A7841FA91
:1015D00082F2002A01DC0023F3E71B786A7842FAE2
:1015E00083F3DBB2EDE7334A6178137841FA83F392
:1015F000002BF0DB1378F1E70746A5E70022B9E7F7
:10160000082B18D10323A3706B78DBB263702B789F
:10161000DBB2237020786178062200F0A1FA19E786
:10162000082B1BD10223EEE74AB12B78013BDBB23A
:101630002B700023A370002EE6D0012311E00EB121
:1016400002230EE02B783F2BDED1A670DCE762B1DF
:101650002B78013BDBB22B700123A370002ED3D07B
:101660000023A370FFF70CFECEE70EB10323F8E7CB
:101670002B783F2BC8D10123C5E728786978FFF77D
:1016800065FEA3780646032BBED8DFE803F01951A8
:101690009E7500BFFC470010F84700100A4000107C
:1016A000F4470010024800100148001000480010E4
:1016B000FD4700100940001054410010B49B000089
:1016C00018B35E4E5E483368D96803F0D1F85D4BBD
:1016D0001B78012B08D133685B48D96803F0C8F840
:1016E00028786978FFF796FD207861780138C0B2D4
:1016F000FFF790FD207861780131C9B2FFF78AFDCC
:101700000223A370FFF7BCFD1BE028786978FFF780
:1017100081FD6B785A0708D10123A370FFF7B0FD54
:101720006B783F2B7FF470AF8AE70323A370F7E752
:1017300070B1444B1B78FF2B27D128786978FFF7CD
:1017400069FD2378DBB22B706378DBB26B705BE7EB
:1017500028786978FFF75EFD6B7803F00703072BA5
:1017600007D1A670FFF78CFD6B78002B7FF44CAF90
:101770007CE70223A370F7E7A8B1324B1B78012B5B
:1017800003D128786978FFF745FD20786178013822
:10179000C0B2FFF73FFD207861780139C9B2FFF789
:1017A00039FD0323ADE728786978FFF733FD6B78BF
:1017B0005B0708D10223A370FFF762FD6B783F2B14
:1017C0007FF422AF39E7A670F8E788B11D4B1B788C
:1017D000FF2BB2D0207861780130C0B2FFF71AFD3C
:1017E000207861780139C9B2FFF714FD002388E73A
:1017F00028786978FFF70EFD6B7803F00703072B55
:101800000BD10323A370FFF73BFD6B7803F0FF02BE
:10181000002B7FF4F9AEA27024E70123A370F4E754
:101820001A68012A3FF41BAE1A68022A3FF417AE69
:101830001B68032B08BF88F8003012E654410010E3
:10184000C19B000009400010D09B000008B5FEF7C6
:10185000D7FD20B10348BDE8084004F0F9B80248BC
:10186000F9E700BFFB9B0000239C000007B568461A
:10187000FEF7D7FDBDF9003013F1C80F06DBC82B0A
:10188000CCBF0120022003B05DF804FB0020FAE782
:10189000024B03EB8010405C704700BF1148001002
:1018A000014B187801F040BF0D480010014B18782B
:1018B00001F02CBF0D480010014B187801F026BF35
:1018C0000E480010014B187801F02EBF0E48001092
:1018D00010B5044C207801F019FF2078BDE81040C5
:1018E00001F022BF084800102DE9F84F0E21012019
:1018F00001F0E6FE444ADFF838B110701D210420E3
:1019000001F0DEFE414BDFF82CA11870072100200A
:1019100001F0D6FE09218BF80000002001F0D0FE76
:1019200019218AF80000002001F0CAFEDFF80891B2
:10193000DFF8088189F800001E21012001F0C0FEB7
:10194000062188F80000002001F0BAFE304F314E29
:1019500038700821002001F0B3FE1A2130700020F9
:1019600001F0AEFE2C4D2D4C28701F21012001F0FE
:10197000A7FE2B4B14211870012001F0A1FE294A6B
:1019800017211070012001F09BFE0421207002201D
:1019900001F096FE244908701D21012001F090FEFF
:1019A0002249194A0870107801F0BEFE174B1878CA
:1019B00001F0BAFE9BF8000001F0B6FE9AF80000B4
:1019C00001F0B2FE99F8000001F0AEFE98F80000B8
:1019D00001F0AAFE387801F0A7FE307801F0A4FEED
:1019E000287801F0A1FE0E4B187801F09DFE0D4AFB
:1019F000107801F099FE207801F096FEFFF75CFF69
:101A0000BDE8F84FFFF74CBF0F4800100B4800101F
:101A10000348001004480010074800100848001050
:101A2000094800100A4800100E4800100D48001028
:101A300005480010104800100C480010064800101F
:101A4000013838B51F4B204D204C062805D8DFE85B
:101A500000F00F1A1325301E3400187801F064FED0
:101A6000287801F061FE2078BDE8384001F05CBEC6
:101A7000187801F04BFEF3E7187801F047FE28785C
:101A800001F044FEEFE7187801F04EFEF7E7187812
:101A900001F04AFE287801F039FE05E0187801F0DF
:101AA00043FE287801F040FE2078BDE8384001F080
:101AB0002DBE187801F02AFEF3E7187801F026FE13
:101AC000E8E700BF0F4800100B4800100548001061
:101AD000013838B51F4B204D204C062805D8DFE8CB
:101AE00000F00F1A1325301E3400187801F01CFE88
:101AF000287801F019FE2078BDE8384001F014BEC6
:101B0000187801F003FEF3E7187801F0FFFD28785C
:101B100001F0FCFDEFE7187801F006FEF7E7187812
:101B200001F002FE287801F0F1FD05E0187801F0DF
:101B3000FBFD287801F0F8FD2078BDE8384001F081
:101B4000E5BD187801F0E2FDF3E7187801F0DEFD5D
:101B5000E8E700BF104800100C48001006480010CD
:101B6000024B03EB80104254704700BF1148001035
:101B70002DE9F0472A4FDFF8B880DFF8B89020252C
:101B8000FFF78EFEFFF79EFEA5F12004002607EB6F
:101B9000841A1AF80600FFF753FF07EB8513985DC8
:101BA0000136FFF795FFFFF793FE402EF1D1FFF7C7
:101BB0007DFEFFF781FEE20798F8000021D501F0D5
:101BC000A5FDA30799F800001ED501F09FFD154B58
:101BD00014F0040F18781AD001F098FD124B14F08D
:101BE000080F187816D001F091FD104B14F0100F6B
:101BF000187812D001F08AFD0135402DC0D1BDE822
:101C0000F08701F091FDDCE701F08EFDDFE701F0E8
:101C10008BFDE3E701F088FDE7E701F085FDEBE7E9
:101C20001148001007480010094800100A48001029
:101C3000034800100448001070B5074C00218A01C9
:101C4000851800232244EE5CD6540133402BFAD190
:101C500001314029F3D170BD114800100C4600201D
:101C6000044908B5FFF777FA21460020FFF773FA19
:101C7000FEE700BF799D000008B502490020FFF78C
:101C80006AFAFEE73F9D0000024B0022C3F8C02025
:101C900030BF704700C00F4008B50C4600200A490D
:101CA000FFF759FA09490020FFF755FA08490020C3
:101CB000FFF751FA07490020FFF74DFA21460020AF
:101CC000FFF749FAFEE700BF479C0000999C00001F
:101CD000DC9C0000109D0000034B0360034B0B6075
:101CE00064231360704700BFB059001020580010E3
:101CF00008B5FFF711FA024B1B68C01A08BD00BFF8
:101D00001858001000F074B800F0BAB800F0EAB843
:101D100010B5044601F03CF8204602F0B5FD04463B
:101D200001F0D0F80CB9FFF7A7FF204610BD10B5A1
:101D3000044640B101F02CF8204602F0ADFDBDE8AC
:101D4000104001F0BFB810BD08480068006880F37B
:101D500008884FF0000080F3148862B661B6BFF3C4
:101D60004F8FBFF36F8F00DF00BF000008ED00E072
:101D7000DFF80C00016841F4700101607047000059
:101D800088ED00E007B5002301930B4B1B6801337E
:101D900004D00A49EF20FFF77FFFFEE74FF018035A
:101DA00083F31188BFF36F8FBFF34F8F019B002B1D
:101DB000FCD003B05DF804FB145A0010969D00009F
:101DC0004FF0807340F8043C074B40F80C3C21F086
:101DD00001016FF0020340F8081C40F8202C40F885
:101DE000243C4438704700BF851D0000FFFFFFFF03
:101DF000074B19680868B0E8F04F80F30988BFF313
:101E00006F8F4FF0000080F311887047AFF30080B0
:101E1000185A001008B54FF0180383F31188BFF368
:101E20006F8FBFF34F8F094A13680133012B136083
:101E30000AD1074B1B6813F0FF0F05D0054940F28C
:101E4000AB10FFF729FFFEE708BD00BF145A0010D2
:101E500004ED00E0B09D0000074A08B513682BB9F7
:101E600006494FF4D970FFF717FFFEE7013B1360F7
:101E70000BB983F3118808BD145A0010E59D0000CA
:101E8000EFF30980BFF36F8F154B1A681EF0100F28
:101E900008BF20ED108A20E9F04F10602DE90900FD
:101EA0004FF0180080F31188BFF34F8FBFF36F8F8F
:101EB00001F0A2F84FF0000080F3118809BC196806
:101EC0000868B0E8F04F1EF0100F08BFB0EC108AA1
:101ED00080F30988BFF36F8F704700BFAFF30080B6
:101EE000185A001008B54FF0180383F31188BFF398
:101EF0006F8FBFF34F8F00F053FF18B1034B4FF0BC
:101F000080521A60002383F3118808BD04ED00E0BD
:101F100010B5084A084C002323601360FEF77EF9D1
:101F20004FF47A73B0FBF3F0044B013818600723C9
:101F3000236010BD18E000E010E000E014E000E0D5
:101F4000334B344A13B51968914205D132494FF4E5
:101F50009A70FFF7A1FEFEE71A68304B9A4205D14E
:101F60002F4940F23510FFF797FEFEE72D4B1A7808
:101F7000D2B20192FF221A701B782B4ADBB28DF885
:101F800003309DF8033003F018031370274A07232A
:101F9000136000219DF80300000603F1FF3409D40B
:101FA00011B1022B13600ED0214940F25D10FFF7F2
:101FB00073FEFEE79DF803305B00DBB28DF8033063
:101FC00001212346E6E74FF400731360019B154A95
:101FD000DBB21370174B1A6842F478021A601A6861
:101FE00042F078421A60FFF793FF134B00241C6005
:101FF000FFF7BEFE114A136843F040431360FFF73A
:10200000A3FE00F0F9FFFFF7BDFE204602B010BDB1
:1020100000ED00E071C20F41639E000070C20F41ED
:10202000869E000000E400E00C5A0010105A0010D8
:10203000A99E000020ED00E0145A001034EF00E0EB
:1020400008B5EFF305830F2B0BD90D4A9B5C0D4AA6
:1020500012789A4205D90C4940F2FE20FFF71CFE87
:10206000FEE70A4B0A4A1B68126803F4E0639342D6
:1020700005D9084940F20E30FFF70EFEFEE708BD15
:10208000F0E300E00C5A0010F79D00000CED00E0BA
:10209000105A0010219E000000F108034FF0FF329B
:1020A0004360C0E9022303610023036070470023FB
:1020B0000361704743684B609A688A609A68516010
:1020C0009960036808610133036070470A68531C14
:1020D00030B50AD103695A684A6091608B605960D3
:1020E000036808610133036030BD00F108035C68D8
:1020F00025689542EFD82346F9E7D0E90112036934
:102100008A6051605968814208BF5A6000220261AA
:102110001A68013A1A601868704710B50446FFF74C
:1021200079FEA46BFFF798FEB4FA84F0400910BD65
:10213000F8B51546026C866B044652B9076847BB72
:10214000806801F0BFF8A76005460136A6632846FF
:10215000F8BD65B9406802F0A7FB6368226C1344C0
:10216000A26863609342F0D323686360EDE7C068C0
:1021700002F09AFB236CE26821685B421A448A42AF
:10218000E2603EBFA2689B18E360022D01D116B148
:10219000013E0025D9E73546D7E7034610B41A6C4F
:1021A000084662B1D9689C681144A142D96024BF35
:1021B0001968D960D9685DF8044B02F075BB5DF809
:1021C000044B704770B50446FFF724FE94F8455061
:1021D00004F124066DB2002D14DCFF2384F8453091
:1021E000FFF73AFEFFF716FE94F8445004F110068C
:1021F0006DB2002D12DCFF2384F84430BDE870403E
:10220000FFF72ABE636A002BE7D0304600F072FF6A
:1022100008B100F0F5FF013D6DB2DCE72369002B4A
:10222000E9D0304600F066FF08B100F0E9FF013D5B
:102230006DB2DEE738B50D46044628B91A4940F2BA
:102240000D10FFF729FDFEE7FFF7E4FDD4E90F309D
:10225000226862604343D1181B1A1344A160E360F3
:102260000021FF23A16384F8443084F8453095B9F8
:10227000236963B104F1100000F03CFF38B10B4B4F
:102280004FF080521A60BFF34F8FBFF36F8FFFF78D
:10229000E3FD012038BD04F11000FFF7FDFE04F15D
:1022A0002400FFF7F9FEF2E7AF9F000004ED00E025
:1022B00013B51C4628B91E494FF4A470FFF7ECFC77
:1022C000FEE72BB91B494FF4A670FFF7E5FCFEE7CC
:1022D00032B161B918494FF4A870FFF7DDFCFEE791
:1022E00029B1164940F25110FFF7D6FCFEE7502302
:1022F0000193019B502B05D0114940F25910FFF773
:10230000CBFCFEE7002908BF2246019B2260012387
:10231000C4E90F0184F8463019462046FFF78AFFCA
:102320009DF8103084F84C30204602B010BD00BF3C
:10233000EC9E00000E9F0000249F00005C9F0000A8
:10234000949F00002DE9FF47884601921F460446EE
:1023500028B94E494FF44370FFF79EFCFEE739B9A8
:10236000036C2BB14A4940F20D30FFF795FCFEE7B4
:10237000022F08D1E36B012B05D0464940F20E3005
:10238000FFF78AFCFEE700F041FF064638B9019BE3
:1023900033B1414940F21130FFF77EFCFEE70026E1
:1023A0004FF00009DFF8F4A037E0019D1DB9FFF7F9
:1023B00053FD002050E016B902A800F0DBFEFFF745
:1023C0004BFD00F0E5FCFFF725FD94F84430FF2BB2
:1023D00008BF84F8449094F84530FF2B08BF84F878
:1023E0004590FFF739FD01A902A800F0CFFE0028B3
:1023F00046D1FFF70FFDA26BE36B9A422FD1FFF797
:102400002BFD019904F1100000F05CFE2046FFF75F
:10241000D9FE00F057FD50B30126FFF7FBFCA26B7D
:10242000E36B9A4201D3022FBFD13A464146204680
:10243000FFF77EFE636A1BB104F1240000F05AFE30
:1024400038B1164B4FF080521A60BFF34F8FBFF375
:102450006F8FFFF701FD012004B0BDE8F087FFF7A3
:10246000FBFC2046FFF7AEFE00F02CFDD4E74FF05A
:102470008053CAF80030BFF34F8FBFF36F8FCBE7A5
:102480002046FFF79FFE00F01DFD92E7AF9F000082
:10249000B79F000007A000004EA0000004ED00E080
:1024A00013B5002200900B4601201146FFF700FFF4
:1024B000044638B1002383600360C3601A4619469E
:1024C000FFF740FF204602B010BDFFFF2DE9F843A3
:1024D000894690461F46044628B92D494FF4787026
:1024E000FFF7DAFBFEE739B9036C2BB1294940F25B
:1024F000E130FFF7D1FBFEE7022F08D1E36B012BA0
:1025000005D0254940F2E230FFF7C6FBFEE7FFF7B2
:1025100097FDEFF311864FF0180383F31188BFF393
:102520006F8FBFF34F8FA26BE36B9A4201D3022FE1
:102530002BD194F84550A36B6DB23A4649462046DC
:10254000FFF7F6FD6B1C13D1636A0BB901200BE09A
:1025500004F1240000F0CEFD0028F7D0B8F1000F00
:10256000F4D00120C8F8000086F31188BDE8F88394
:102570007F2D05D1094940F26B40FFF78DFBFEE747
:1025800001356DB284F84550E0E70020ECE700BF6C
:10259000AF9F0000B79F000007A00000A4A00000AC
:1025A00070B50D46044628B9274940F28B40FFF725
:1025B00073FBFEE7036C2BB1244940F28F40FFF719
:1025C0006BFBFEE703683BB983682BB1204940F2FF
:1025D0009440FFF761FBFEE7FFF732FDEFF3118652
:1025E0004FF0180383F31188BFF36F8FBFF34F8F42
:1025F000A26BE36B934224D994F8453001325BB26D
:10260000A2635A1C10D1636A0BB9012009E004F1DE
:10261000240000F06FFD0028F7D0002DF5D0012038
:10262000286086F3118870BD7F2B05D1094940F2DF
:102630001350FFF731FBFEE701335BB284F84530FE
:10264000E3E70020EDE700BFAF9F0000BDA0000062
:10265000D6A00000A4A000002DE9F04385B00F46ED
:102660000192044628B9474940F22F50FFF714FB66
:10267000FEE739B9036C2BB1434940F23350FFF701
:102680000BFBFEE700F0C2FD064638B9019B33B1F3
:102690003E494FF4A760FFF7FFFAFEE700264FF030
:1026A0000008DFF8EC903BE0019D1DB9FFF7D4FB7B
:1026B000002052E016B902A800F05CFDFFF7CCFB49
:1026C00000F066FBFFF7A6FB94F84430FF2B08BF31
:1026D00084F8448094F84530FF2B08BF84F8458087
:1026E000FFF7BAFB01A902A800F050FD00283DD178
:1026F0002046FFF712FD98B3019904F1240000F081
:10270000E1FC2046FFF75EFD00F0DCFB38B94FF03E
:102710008053C9F80030BFF34F8FBFF36F8F01268E
:10272000FFF778FBA56B002DBED039462046013D52
:10273000FFF733FDA563236963B104F1100000F0D6
:10274000D9FC38B1124B4FF080521A60BFF34F8F53
:10275000BFF36F8FFFF780FB012005B0BDE8F0836A
:102760002046FFF72FFD00F0ADFBD8E72046FFF72E
:1027700029FD00F0A7FB2046FFF7CFFC0028CED0B4
:1027800096E700BF3DA1000049A100004EA0000057
:1027900004ED00E02DE9FF410446019128B95849B4
:1027A00040F2C150FFF778FAFEE7056C2DB15549AC
:1027B00040F2C550FFF770FAFEE700F027FD06462D
:1027C00038B9019B53B1504940F2CA50FFF764FA3F
:1027D000FEE72E460027DFF838814EE00546F9E790
:1027E000019B4BB92DB149494FF4C260FFF754FA30
:1027F000FEE7FFF731FB5EE016B902A800F0BAFC75
:10280000FFF72AFB00F0C4FAFFF704FB94F844300A
:10281000FF2B08BF84F8447094F84530FF2B08BFA5
:1028200084F84570FFF718FB01A902A800F0AEFC80
:1028300000284AD12046FFF770FC00283FD02368CB
:102840003BB9FFF7E7FAA06800F0F0FC0546FFF798
:1028500003FB019904F1240000F034FC2046FFF74B
:10286000B1FC00F02FFB38B94FF08053C8F80030AE
:10287000BFF34F8FBFF36F8F0126FFF7CBFAA36B28
:10288000002BADD0013BA363236813B900F0B8FD62
:10289000A060236963B104F1100000F02BFC38B193
:1028A0001B4B4FF080521A60BFF34F8FBFF36F8FF7
:1028B000FFF7D2FA0125284604B0BDE8F081204692
:1028C000FFF780FC00F0FEFAD6E72046FFF77AFC1F
:1028D00000F0F8FA2046FFF720FC0028CCD0002DAD
:1028E000E9D0FFF797FA616A19B1236B1968C1F152
:1028F0000A01A06800F030FD0025FFF7ADFADAE725
:102900003DA10000BDA000004EA0000000A20000FC
:1029100004ED00E02DE9F84389469046054628B9C4
:10292000254940F22F70FFF7B7F9FEE739B9036C7C
:102930002BB122494FF4E660FFF7AEF9FEE7FFF74F
:102940007FFBEFF311874FF0180383F31188BFF378
:102950006F8FBFF34F8FAC6B5CB395F84460494603
:1029600076B22846FFF719FC013C731CAC6313D107
:102970002B690BB901200BE005F1100000F0BAFB48
:102980000028F7D0B8F1000FF4D00120C8F80000FB
:1029900087F31188BDE8F8837F2E05D1084940F2FE
:1029A0007370FFF779F9FEE7013676B285F8446077
:1029B000E0E72046ECE700BFAF9F00009CA10000CD
:1029C000E7A1000008B528B9064940F2EE70FFF70C
:1029D00063F9FEE790F846301BB9BDE80840FFF701
:1029E000A6B908BDAF9F00002DE9F0410446FFF7EE
:1029F00011FA2D4B2D4D1A682D4F01321A602E6899
:102A0000002E46D12C601B68012B1CD1B8464046D5
:102A10000136FFF741FB0A2E08F11408F7D1DFF861
:102A2000B880244E4046FFF737FB3046FFF734FBB3
:102A30002148FFF731FB2148FFF72EFB204BC3F85D
:102A40000080204B1E60204A20491368086801332B
:102A50001360E26A236401239340034314200B6054
:102A600000FB0270211DFFF725FBFFF7F5F9184B5E
:102A70001B6863B12B68DA6AE36A9A4207D2154B86
:102A80004FF080521A60BFF34F8FBFF36F8FBDE8D6
:102A9000F0810F4B1B68002BD5D12B68DA6AE36AF3
:102AA0009A4298BF2C60CEE7F45A0010185A0010D2
:102AB000245A0010185B00103C5B0010545B00109F
:102AC0001C5A0010205A0010FC5A0010005B001025
:102AD000505B001004ED00E0045B001008B5074CEB
:102AE000074D4FF080562368012B04D92E60BFF3A9
:102AF0004F8FBFF36F8FFFF7C7F8F4E7245A00102A
:102B000004ED00E0064A13681968064B19B94FF046
:102B1000FF321A6070471268D2681268F9E700BF86
:102B20001C5A0010305B00102DE9F047DDE9096404
:102B30004FEA82094A4607460D46206BA521984672
:102B400001F0DAFE236BA9F10409994429F0070981
:102B50009DB36B1E04F134020B3513F8011F02F80C
:102B6000011B09B1AB42F8D1002384F83F30089D26
:102B7000092D28BF09254FF0000AE562A564201D34
:102B8000C4F84CA0FFF793FAC5F10A0504F1180048
:102B9000FFF78DFA2461A5616462C4F850A0C4F8FF
:102BA00054A084F858A0424639464846FFF708F931
:102BB000206006B13460BDE8F08784F83450D6E771
:102BC000F8B51B4B1B4E1C680546306804300F4699
:102BD000FFF793FA334640B93168174EC96A326835
:102BE0000120884022EA000232606A1C07D137B116
:102BF000196812480431BDE8F840FFF75BBA1A685B
:102C00006419546007D30E4A10681968BDE8F8408B
:102C10000431FFF75BBA0B4A106819680431FFF7FB
:102C200055FA094B1A68A24288BF1C60F8BD00BF64
:102C3000685B0010185A0010005B0010545B001015
:102C4000205A00101C5A0010305B001070B586B07E
:102C5000DDE90B542DB915494FF41270FFF71CF83C
:102C6000FEE72CB9124940F24920FFF715F8FEE7BC
:102C70005C260596059E5C2E05D00E4940F251203B
:102C8000FFF70AF8FEE72563022584F8595004ADE2
:102C900001950A9D02940095059EFFF745FF204689
:102CA000FFF7A2FE049806B070BD00BFA6A2000008
:102CB000BDA20000D2A200002DE9F043074685B076
:102CC0009000884616469946FFF722F80546E8B177
:102CD0005C20FFF71DF80446A8B1002380F85930A6
:102CE0000D9B056301930C9B0290009332464B466B
:102CF00041463846FFF718FF2046FFF775FE0120D2
:102D000005B0BDE8F0832846FFF711F84FF0FF301B
:102D1000F6E7FFFF10B588B0002407AA06A905A8AA
:102D2000CDE90544FEF7D8FF059B0293069B079A61
:102D300010491148CDE900432346FFF787FF0F4BA9
:102D4000186090B14FF0180383F31188BFF36F8FB1
:102D5000BFF34F8F0A4B4FF0FF321A60094B01222D
:102D60001A60094B1C60FFF7EBF8084B1B6808B0B2
:102D700010BD00BF4CA20000DD2A00002C5B00103B
:102D8000305B0010505B0010685B00100C400010BE
:102D9000024A136801331360704700BFF85A0010ED
:102DA0002DE9F84F3B4B1B68002B6CD13A4B1C684C
:102DB00001341C60A4B9394B1A6812682AB1384929
:102DC00040F6BC20FEF768FFFEE7364A1968106837
:102DD00018601160344A136801331360FFF792FEE4
:102DE000324D334F2B689C424FF0000B12D23A68A1
:102DF000304BD16A14224A439A58022A2E4A12684A
:102E000028BF4FF0010B002A18BF4FF0010B5846A6
:102E1000BDE8F88FDFF884A0DFF8A490DAF800208E
:102E200012681AB94FF0FF322A60E0E7DAF80020A2
:102E3000D268D66871688C4201D22960D7E706F162
:102E400004084046FFF759F9B16A19B106F11800B4
:102E5000FFF753F9F06AD9F80030012202FA00F1C5
:102E60001943144BC9F800104FF0140C41460CFBE9
:102E70000030FFF71FF93868F16AC26A914228BF33
:102E80004FF0010BCAE70D4A1368013313604FF08E
:102E9000000BBCE7F85A0010685B00101C5A0010C9
:102EA00030A30000205A0010345B0010305B00108B
:102EB000185A0010245A00106C5B0010385B001088
:102EC000005B00102DE9F8432F4C23682BB92F49E4
:102ED00040F6A900FEF7E0FEFEE7FEF79BFF236841
:102EE000013B236024682CB10024FEF7B5FF204687
:102EF000BDE8F883264B1B68002BF5D0254D264EE8
:102F0000DFF8A8801FE0EB68DC6804F1040904F135
:102F10001800FFF7F2F84846FFF7EFF8E26A316869
:102F2000012707FA02F314200B4300FB02804946F5
:102F30003360FFF7BFF8194BE26A1B68DB6A9A42FD
:102F400001D3174B1F602B68002BDCD10CB1FFF7AE
:102F5000D9FD144D2C6844B1114E0127FFF720FF15
:102F600000B13760013CF9D12C600D4B1B68002B80
:102F7000BAD00D4B4FF080521A60BFF34F8FBFF3A2
:102F80006F8F0124B1E700BFF85A001095A300002D
:102F9000F45A00103C5B0010005B0010185A00103F
:102FA0006C5B0010385B001004ED00E0245A001048
:102FB00008B540B90D4B4FF080521A60BFF34F8FE8
:102FC000BFF36F8F08BD0A4B196829B1094940F258
:102FD0003F50FEF761FEFEE7FFF7DAFEFFF7F0FD78
:102FE000FFF770FF0028E5D0ECE700BF04ED00E03C
:102FF000F85A001016A300002A4B1A682A4B70B525
:1030000012B101221A6070BD1A60FEF771FE274BE3
:10301000274918601A680D68264CAA4205D91E680F
:103020002068026D521B324402651B680B602368E6
:103030001B6B1A68B2F1A53F0BD15A68B2F1A53FDC
:1030400007D19A68B2F1A53F03D1DB68B3F1A53F80
:1030500004D0206821683431FEF700FE164B1B684F
:10306000B3FA83F3DBB2C3F11F03142213495A43AB
:1030700088188D582DB9124940F6F730FEF70CFE2E
:10308000FEE7456808326D6845600A44954204BF12
:103090006A684260142202FB03135B68DB682360EA
:1030A000B1E700BFF85A00106C5B0010F05A001036
:1030B000EC5A0010185A0010005B0010245A00103F
:1030C00051A2000010B50C4628B9084940F611403D
:1030D000FEF7E2FDFEE7064B19681831FEF7F6FF32
:1030E00020460121BDE81040FFF76ABD20A2000084
:1030F000185A001038B5C368DC682CB916494FF46B
:103100004760FEF7C9FDFEE704F118052846FEF703
:10311000F4FF124B1B68E3B9251D2846FEF7EDFFAF
:103120000F49E26A08680123934003430B600D4B8B
:103130001420294600FB0230FEF7BCFF0A4BE26A6E
:103140001B68DB6A9A4283BF084B0120186000208D
:1031500038BD29460648EFE786A30000F85A00105C
:10316000005B0010245A0010185A00106C5B00100D
:103170003C5B0010034B1B680360034B1B68436000
:10318000704700BF345B0010685B001070B50D46DF
:10319000044628B9164940F6EB40FEF77DFDFEE7F0
:1031A00029B9144940F6EC40FEF776FDFEE7FEF73C
:1031B00031FE114B19682B685A1C17D00F4826682E
:1031C00000686268864208D08A4206D800232B60D5
:1031D0000124FEF741FE204670BD881A8342F5D9CE
:1031E0005B1A13442B602046FFF7C4FF0024F0E76E
:1031F00042A2000098A20000685B0010345B00103F
:10320000014B01221A6070476C5B0010054B1B6874
:1032100033B1054B1B68002B0CBF02200020704708
:1032200001207047505B0010F85A0010F8B50446B2
:10323000002831D0204AC36A1168C96A8B421646F9
:1032400031D282691D4D002AA1BF3268D26AC2F113
:103250000A028261142202FB035342699A421DD181
:10326000071D3846FEF749FF154B30B9E06A1A686A
:103270000121814022EA01021A6032681968D26A8B
:10328000E262012404FA02F008431860142039466F
:1032900000FB0250FEF70EFF204603E03368DB6AB6
:1032A000C3620120F8BD1368806CDC6AA0422CBFA9
:1032B00000200120F6E700BF185A0010245A001021
:1032C000005B001038B5044608B9002038BD1D4B1E
:1032D0001B68834205D01C4941F23D00FEF7DCFC2F
:1032E000FEE7DB6C2BB9194941F23E00FEF7D4FC36
:1032F000FEE7C16A826C013B9142C364E5D0002BBA
:10330000E3D1051D2846FEF7F8FE114A30B9E16AFF
:1033100013680120884023EA00031360A36CE36272
:10332000C3F10A01A1611168012404FA03F0084302
:103330001060084A142000FB03202946FEF7BAFE5D
:103340002046C3E7185A00105BA3000071A30000D9
:10335000005B0010245A001070B50446002843D0CA
:10336000C26C2AB9214941F28D00FEF795FCFEE7B7
:10337000836C994238BF1946C36A8B4234D0012A04
:1033800032D11B4A1268824205D11A4941F2A80083
:10339000FEF782FCFEE78269174DC162002A4FF0FA
:1033A000140202FB03534269A4BFC1F10A01816107
:1033B0009A4219D1061D3046FEF79FFEE46A0F4A75
:1033C00028B913680120A04023EA000313601168A4
:1033D0000123A34014200B4300FB04503146BDE8F9
:1033E00070401360FEF766BE70BD00BF71A30000A1
:1033F000185A00102CA20000245A0010005B001084
:10340000044B1A681AB11968CA6C0132CA64186888
:10341000704700BF185A001010B5FEF769FC064B44
:10342000064A196829B1196814680B6D1B1B0344FF
:103430000B65106010BD00BF185A0010EC5A001048
:1034400008B5FEF755FC014B186008BDEC5A00109A
:1034500038B501220221002000F0C3F80122032127
:10346000002000F0BEF804220021012000F0B9F88D
:1034700001210422084600F0B4F80422114601207C
:1034800000F0AFF80821012000F01AF9284B4FF4A2
:1034900080729A610921012000F0EEF802220A21CF
:1034A000002000F09EF802220B210546002000F0CB
:1034B00098F80446284600F0A9F8204600F0A6F83F
:1034C0000321022000F0FCF81A4B1B4D18701A2142
:1034D000012000F0F5F8194B194C18701821012043
:1034E00000F0EEF8174B12211870012000F0E8F8F8
:1034F000154B13211870012000F0BEF80F21287021
:10350000012000F0B9F81E212070002000F0B4F86E
:103510000E4B1D211870002000F0AEF80C4B1870F7
:10352000287800F083F82078BDE8384000F07EB8B5
:1035300020800920705B0010745B0010715B00102C
:10354000755B0010725B0010735B0010765B0010FF
:10355000775B0010024B4FF48072DA61704700BF56
:1035600020800920024B4FF480729A61704700BF9F
:1035700020800920034B586980F40070C0F340207C
:10358000704700BF20800920014B1878704700BFAA
:10359000705B0010014B1878704700BF715B001022
:1035A000014B1878704700BF725B0010014B187810
:1035B000704700BF735B0010C0F3C40300F0070244
:1035C0009B0003EBC21303F1804303F5303301F09A
:1035D00007011A6822F007021A601A68114319607D
:1035E000704738B500F007054FF0000001F01F04E8
:1035F00065F3020064F3C7001146FFF7DDFF4FF0EB
:10360000000065F3020064F3C70038BDC0F3C403D3
:1036100000F007029B0003EBC21303F1804303F5A4
:1036200030331A6842F480621A607047C0F3C403F2
:1036300000F007029B0003EBC21303F1804303F584
:1036400030331A6822F018021A601A6842F0080231
:103650001A60704700F00702064B53F82210C0F3BF
:10366000C4000B68012202FA00F023EA00030B6099
:10367000704700BFACA3000038B500F007054FF05D
:10368000000001F01F0465F3020064F3C700FFF7B8
:10369000E1FF4FF0000065F3020064F3C70038BD9E
:1036A00000F00702054B53F82220C0F3C403116851
:1036B0000120984008431060704700BFACA3000091
:1036C00038B500F007054FF0000001F01F0465F366
:1036D000020064F3C700FFF7E3FF4FF0000065F35B
:1036E000020064F3C70038BD00F00702064B53F830
:1036F0002230C0F3C4005A69012303FA00F01042DB
:1037000014BF184600207047ACA3000000F0070269
:10371000044BC0F3C40053F82220012303FA00F045
:1037200090617047ACA3000000F00702044BC0F3A7
:10373000C40053F82220012303FA00F0D06170473F
:10374000ACA3000008B50146FFF7CEFF20B1084644
:10375000BDE80840FFF7E8BF0846BDE80840FFF7AE
:10376000D5BFFFFF2DE9F8430F4F0C2444433E190A
:10377000884635792846914600F00EFA3C590023D8
:103780003F2263604946A360284622606361B268B5
:10379000A361E3612362636200F022FA0123C4F8AB
:1037A0000C806360BDE8F883C4A300000C23584379
:1037B000064B1B5830B501205C6901EB4105A84060
:1037C00020435861183343F8212030BDC4A30000C2
:1037D0000C235843034B1A58012303FA01F11160DB
:1037E000704700BFC4A300000C235843014B1B5873
:1037F00098687047C4A300000C235843014B1B5822
:1038000099607047C4A300002DE9F04104461746B3
:103810001E468846FFF7FAFC00210546A068FEF721
:10382000B9FF00232374069BA361079BE361236810
:1038300084F811802022022DA77466611A600BD1D2
:1038400040F6B831A068FEF7A5FF18B1207CB0FAA9
:1038500080F04009BDE8F0810021A068FEF79AFFE2
:103860000028F9D0F2E7FFFF03685A68282A13B549
:1038700057D00AD8102A2CD0182A32D0082A09D1B9
:10388000417C01F0FE01996028E0402A63D00DD808
:10389000382A77D05A68027420229A6110221A605E
:1038A00008229A611A68D206FCD426E0502A5BD01E
:1038B000582AEFD14269996811700022C261202212
:1038C0009A6110221A6008229A611A68D106FCD403
:1038D00013E0427C42F001029A6008229A6102B031
:1038E00010BDC469202199610822C4B999611021D1
:1038F00019609A611A68D106FCD4002301A9806876
:103900000193FEF74DFE019B002BE8D01F4B4FF0BB
:1039100080521A60BFF34F8FBFF36F8FDFE7817C58
:10392000B1E7427CD20702D520221A60D5E7C269EE
:103930004AB920229A6110221A6008229A611A68F4
:10394000D406FCD4D9E78169013A11F8014B9C6097
:103950008161C261C1E720229A61C269012A4FF0E8
:103960000402E2D89A61B8E7426999681170426925
:1039700001324261C269013A012AC2614FF0040278
:10398000D3D1EFE75B680374B7E700BF04ED00E055
:103990000148FFF769BF00BF504000100148FFF722
:1039A00063BF00BF304000100148FFF75DBF00BF9C
:1039B000104000102DE9F0471546284A0646894672
:1039C00007CA86B006AC04E9070040F60A32ADF833
:1039D00008200C228DF80A202149DDF838A0720158
:1039E0008F188C5806AA3244012012F8108C03223A
:1039F000009200221146FEF75BFC5146B8600120A0
:103A0000FEF74EFDF860404600F0C6F86C23A36157
:103A1000144A154B914588BF99462823B5FBF9F206
:103A20005208C8215343B3FBF1F323613C235A43AB
:103A30000023B2FBF1F26261A36263622362E3607E
:103A40004023236006AB03EB86067A6856F80C1C0D
:103A5000404606B0BDE8F04700F0C2B80CA4000034
:103A60001040001040420F00A08601002DE9F341F4
:103A70000F4690461D4623B90025284602B0BDE8F2
:103A8000F0810E4C04EB40144FF0FF31E068FEF77C
:103A900081FE0028F0D00026089B019342462B4669
:103AA00047F0010100962046FFF7AEFE334605467B
:103AB00032463146E068FEF745FCDEE71040001074
:103AC0001FB500238DF80F30012300930DF10F0374
:103AD000FFF7CCFF9DF80F0005B05DF804FBFFFF7A
:103AE000F7B50E4617461D461BB90025284603B0FC
:103AF000F0BD0E4C04EB40144FF0FF31E068FEF7D0
:103B000049FE0028F1D0089B3A46CDE9005306F063
:103B1000FE0100232046FFF777FE002305461A46E4
:103B20001946E068FEF70EFCE0E700BF1040001009
:103B30001FB5002200920DF10F038DF80F20FFF743
:103B4000CFFF05B05DF804FB1FB58DF80F300123E2
:103B500000930DF10F03FFF7C3FF05B05DF804FB01
:103B6000FEE7FFFF08B5FFF757FC084B084A1B7834
:103B7000103BDBB252F823309847064B00221A6004
:103B80001B68BDE80840FFF75BBC00BF04ED00E028
:103B900070400010785B0010592809D8054B064A80
:103BA000185CD2F8C410012383400B43C2F8C43020
:103BB000704700BF27A4000000C00F4059289FBFD6
:103BC000054B064AD3F8C430105C9ABF23FA00F0C4
:103BD00000F001000020704700C00F4027A4000043
:103BE000592808BF1920084B43F8201043B2002B76
:103BF00008DB012200F01F0002FA00F05B09034A13
:103C000042F82300704700BF7040001000E100E060
:103C100073B54FF0FF33B1F5805F019336D21D4C81
:103C20002369DE0734D41C4B1D69ED0730D41B4DCE
:103C30000326AE602E611A4D1D6002B301AE5E60B8
:103C400041F00046DE6041F20F061E61DAB12060ED
:103C500041F0806140F68112E16065602261114AA5
:103C6000516A41F003015162D868C0F30B0000288B
:103C7000FAD1536A23F00303536202B070BD586057
:103C800041F00846DEE701AA2260E3E70120F4E7FD
:103C90000220F2E70001082020010820000008208F
:103CA00008C00A4000C00A4010B50446FCF7B6FA46
:103CB0004FF47A73B0FBF3F00223B0FBF3F2A242AD
:103CC00002D8034A136110BD0233DBB2F5E700BF2F
:103CD00000C00A4010B504462420FFF75DFF0B4BDF
:103CE00007221A6002225A602046FFF7DDFF1A20E1
:103CF000FFF752FF064B01221A631A6BD207FCD55D
:103D0000044A0023936042F8183C10BD00C00A40EA
:103D10000000082020010820034B9860DA68D206D2
:103D2000FCD49868C0B2704700C00A400122FFF777
:103D30006FBF0022FFF76CBF02689368C3F34203B2
:103D4000022B73B5064623D0062B21D0012B34D18C
:103D500000248DF803400194102501AA0DF1030100
:103D6000B068FEF7D7FD48B133689DF803201A709C
:103D7000019B002B18BF0124013DEED10CB3124B67
:103D80004FF080521A60BFF34F8FBFF36F8F18E070
:103D90000024019433681A7DD207EFD51B788DF883
:103DA000033001AA00230DF10301F068FEF78EFB3A
:103DB000019B002B18BF0124ECE7137DDBB20193BC
:103DC000019B02B070BD00BF04ED00E00148FFF7A9
:103DD000B3BF00BF444100100148FFF7ADBF00BFB3
:103DE000344100100148FFF7A7BF00BF2441001075
:103DF0000148FFF7A1BF00BF14410010154B70B57B
:103E000016460546185C0C463601FFF7C5FEB4FBA6
:103E1000F6F307EE903AF8EE677AB6EE007A77EEB0
:103E2000877A2D01FCEEE77A0B4A17EE903A525949
:103E30009BB280211173190ADBB211711370102328
:103E400082F8283001231372812313720323137322
:103E500070BD00BFACA4000014410010074B10B5AA
:103E60000446185CFFF7AAFE30B12401044B1B592D
:103E7000187B003018BF012010BD00BFACA40000AB
:103E800014410010034B03EB00108068003018BF92
:103E90000120704714410010034B03EB0010C06871
:103EA000003018BF01207047144100102DE9F8437D
:103EB000074689469046FFF7D1FF064618B9002607
:103EC0003046BDE8F883124C3D016319DA6822B927
:103ED000B9F1000F01D0C3F80C9063199A6822B9A8
:103EE000B8F1000F01D0C3F808806319DA68002A1E
:103EF000E5D09A68002AE2D05A68064B53F827109A
:103F0000054BD85DFFF76CFE635907225A60D7E76F
:103F1000144100109CA40000ACA4000038B5074A6E
:103F200003010D46D458FFF799FF30B1237D9A065F
:103F3000FCD52570237D9B06FCD538BD14410010AF
:103F400070B504460E461546FFF760F90E4B03EBBD
:103F50000413DC68B4B1022814D16B1C09D04FF4EF
:103F60007A70A5FB00014FF47A72002300F086FA04
:103F700005462A4631462046FEF76EFB003018BF44
:103F8000012070BD0020FCE7144100102DE9F8432A
:103F900005460E46104CFFF739F92F01E31981460B
:103FA0002846D3F80C80FFF759FF98B1B9F1020FFA
:103FB0000AD1B8F1000F07D0314628464FF0FF3242
:103FC000BDE8F843FFF7BCBFE3591A7DD207FCD523
:103FD0001B783370BDE8F88314410010F7B505462F
:103FE0001C4E8DF807102D011746FFF70FF97319B6
:103FF0009C6854B302282BD1791C09D04FF47A70F5
:10400000A7FB00014FF47A72002300F037FA07464D
:1040100000233A460DF107012046FEF793F9041CF0
:1040200018BF0124FDF7F6FE731975592A7D520653
:1040300009D500220DF107019868FEF76BFC10B15D
:104040009DF807302B70FDF707FF204603B0F0BD49
:104050000024FAE71441001008B5FDF7EDF924201B
:10406000FEF7A6FFF9E708B5FDF782FD0320FEF78E
:104070009FFFF9E708B5FDF7F9FBFDF7BFF90C2045
:10408000FEF796FFF7E7FFFF37B5FDF72DFC03209E
:104090000024FDF7DDF8FDF799F9FDF7D7FB0223C2
:1040A000CDE90034032523464FF480620E490F48C2
:1040B000FEF702FE2346019400954FF480620C49FE
:1040C0000C48FEF7F9FD234640F6C4120A490B4896
:1040D000CDE90054FEF7F0FD094801F0B9FCFEF708
:1040E00019FE204603B030BDB0A4000075400000AA
:1040F000C7A4000067400000DBA400005940000096
:10410000F3A4000081F0004102E000BF83F000430F
:1041100030B54FEA41044FEA430594EA050F08BF62
:1041200090EA020F1FBF54EA000C55EA020C7FEA26
:10413000645C7FEA655C00F0E2804FEA5454D4EBA3
:104140005555B8BF6D420CDD2C4480EA020281EA6D
:10415000030382EA000083EA010180EA020281EAA5
:104160000303362D88BF30BD11F0004F4FEA0131F7
:104170004FF4801C4CEA113102D0404261EB410106
:1041800013F0004F4FEA03334CEA133302D052428C
:1041900063EB430394EA050F00F0A780A4F1010448
:1041A000D5F1200E0DDB02FA0EFC22FA05F2801882
:1041B00041F1000103FA0EF2801843FA05F3594168
:1041C0000EE0A5F120050EF1200E012A03FA0EFCE7
:1041D00028BF4CF0020C43FA05F3C01851EBE37111
:1041E00001F0004507D54FF0000EDCF1000C7EEB2E
:1041F00000006EEB0101B1F5801F1BD3B1F5001F6C
:104200000CD349085FEA30004FEA3C0C04F101048A
:104210004FEA445212F5800F80F09A80BCF1004FB3
:1042200008BF5FEA500C50F1000041EB045141EA35
:10423000050130BD5FEA4C0C404141EB010111F436
:10424000801FA4F10104E9D191F0000F04BF0146E1
:104250000020B1FA81F308BF2033A3F10B03B3F1BF
:1042600020020CDA0C3208DD02F1140CC2F10C024F
:1042700001FA0CF021FA02F10CE002F11402D8BFAD
:10428000C2F1200C01FA02F120FA0CFCDCBF41EA79
:104290000C019040E41AA2BF01EB0451294330BD48
:1042A0006FEA04041F3C1CDA0C340EDC04F1140425
:1042B000C4F1200220FA04F001FA02F340EA0300FC
:1042C00021FA04F345EA030130BDC4F10C04C4F142
:1042D000200220FA02F001FA04F340EA0300294622
:1042E00030BD21FA04F0294630BD94F0000F83F46C
:1042F000801306BF81F480110134013D4EE77FEA4F
:10430000645C18BF7FEA655C29D094EA050F08BF9A
:1043100090EA020F05D054EA000C04BF194610467B
:1043200030BD91EA030F1EBF0021002030BD5FEABF
:10433000545C05D14000494128BF41F0004130BDE7
:1043400014F580043CBF01F5801130BD01F000453B
:1043500045F0FE4141F470014FF0000030BD7FEAAE
:10436000645C1ABF194610467FEA655C1CBF0B46A9
:10437000024650EA013406BF52EA033591EA030FC0
:1043800041F4002130BD00BF90F0000F04BF0021B8
:10439000704730B54FF4806404F132044FF00005EB
:1043A0004FF0000150E700BF90F0000F04BF002164
:1043B000704730B54FF4806404F1320410F00045CA
:1043C00048BF40424FF000013EE700BF42004FEAC5
:1043D000E2014FEA31014FEA02701FBF12F07F4342
:1043E00093F07F4F81F06051704732F07F4208BFF9
:1043F000704793F07F4F04BF41F40021704730B500
:104400004FF4607401F0004521F000411CE700BF4B
:1044100050EA010208BF704730B54FF000050AE0CE
:1044200050EA010208BF704730B511F0004502D5CF
:10443000404261EB41014FF4806404F132045FEAD1
:10444000915C3FF4D8AE4FF003025FEADC0C18BF7A
:1044500003325FEADC0C18BF033202EBDC02C2F16C
:10446000200300FA03FC20FA02F001FA03FE40EAFE
:104470000E0021FA02F11444BDE600BF53B94AB957
:10448000002908BF00281CBF4FF0FF314FF0FF305C
:1044900000F074B9ADF1080C6DE904CE00F006F837
:1044A000DDF804E0DDE9022304B070472DE9F047B0
:1044B000089E04468846002B40F085808A421546B7
:1044C00048D9B2FA82F24AB1C2F1200701FA02F3E6
:1044D00020FA07F7954047EA030894404FEA154E43
:1044E000230CB8FBFEF71FFA85FC0EFB178843EA86
:1044F000084307FB0CF1994209D9EB1807F1FF308B
:1045000080F0E380994240F2E080023F2B445B1A46
:10451000A4B2B3FBFEF00EFB103344EA034400FBED
:104520000CFCA44509D92C1900F1FF3380F0CB8095
:10453000A44540F2C88002382C4440EA0740A4EB6E
:104540000C0400271EB1D4400023C6E900433946BD
:10455000BDE8F087002A53D0B2FA82F2002A40F078
:10456000B680491B4FEA154E1FFA85F80127B1FBAB
:10457000FEFC230C0EFB1C1143EA014308FB0CF16B
:10458000994207D9EB180CF1FF3002D2994200F2A0
:10459000EC808446591AA3B2B1FBFEF00EFB101456
:1045A00043EA044408FB00F8A04507D92C1900F1A0
:1045B000FF3302D2A04500F2DC801846A4EB0804C9
:1045C00040EA0C40BEE78B4208D9002E78D0002785
:1045D000C6E9000138463946BDE8F087B3FA83F7EB
:1045E0007FB98B4202D3824200F2BD80841A61EB14
:1045F000030301209846002EA9D0C6E90048A6E78B
:10460000FFDEC7F12005BB4022FA05FC4CEA030C93
:1046100001FA07F420FA05F821FA05F34FEA1C4ED7
:1046200048EA0404B3FBFEF9210C0EFB19331FFA10
:104630008CF841EA034309FB08FA9A4502FA07F2AB
:1046400000FA07F10BD91CEB030309F1FF3080F0EE
:1046500088809A4540F28580A9F102096344A3EB62
:104660000A03A4B2B3FBFEF00EFB103344EA03448A
:1046700000FB08F8A04508D91CEB040400F1FF3347
:104680006BD2A04569D90238644440EA0940A4EBE2
:104690000804A0FB02894C45C6464B4654D351D072
:1046A000002E69D0B1EB0E0264EB030404FA05F5A9
:1046B00022FA07F3FC401D43C6E90054002746E7F1
:1046C0003746304643E7184637E707461FE7C2F14B
:1046D000200320FA03F7954001FA02F021FA03F3D0
:1046E0004FEA154E3843010CB3FBFEF71FFA85F86D
:1046F0000EFB173341EA034107FB08F38B4204FA30
:1047000002F407D9691807F1FF3C28D28B4226D959
:10471000023F2944CB1A81B2B3FBFEF00EFB1033EB
:1047200041EA034100FB08F38B4207D9691800F105
:10473000FF3C10D28B420ED902382944C91A40EAF4
:10474000074714E74145ABD2B8EB020E69EB0C0208
:1047500001381346A4E76046F0E7184695E7674638
:10476000D8E781467BE7384645E7ACF1020C2B449D
:1047700010E702382C4421E73746E8E6704700BFCF
:104780000EB403B5014603AB054853F8042B00688B
:10479000019300F08BF902B05DF804EB03B07047B1
:1047A0005441001070B50E461446054618B1836991
:1047B0000BB903F025F92B4B9C421ED16C68636E3C
:1047C000DA0705D4A3899B0502D4A06D00F059F83F
:1047D000A38918071BD52369CBB1013E16F8011F29
:1047E00039BB656E15F0010539D1A389990502D44D
:1047F000A06D00F047F8284670BD1B4B9C4201D1CC
:10480000AC68DCE7194B9C4208BFEC68D7E721464F
:10481000284602F027F90028DFD0636EDA0705D4B6
:10482000A3899B0502D4A06D00F02CF84FF0FF3552
:10483000E1E7A368013B002BA36004DAA26993427D
:1048400006DB0A2904D023685A1C22601970C5E7C8
:104850002246284602F0B4F80130BFD1DDE70D460C
:10486000C9E700BFE0A6000000A70000C0A6000046
:10487000024B0A4601461868FFF794BF54410010E6
:10488000704770477047FFFF024B0146186800F001
:1048900089B800BF54410010024B0146186800F06F
:1048A00033B800BF544100100A44914200F1FF3375
:1048B00000D1704710B511F8014B03F8014F914238
:1048C000F9D110BD884210B501EB020302D9834231
:1048D0001C4607D8421E994208D011F8014B02F835
:1048E000014FF8E783189A1A9A4200D110BD14F8C4
:1048F000011D03F8011DF7E702440346934200D16E
:10490000704703F8011BF9E738B50546002945D083
:1049100051F8043C0C1F002BB8BFE41803F000FD55
:104920001F4A1368104633B9636014602846BDE817
:10493000384003F0FBBCA3420CD9216862189342B3
:1049400004BF1A685B68636004BF52182260046089
:10495000ECE713465A680AB1A242FAD91968581806
:10496000A0420BD120680144581882421960DDD161
:10497000106852685A6001441960D7E702D90C23C5
:104980002B60D3E7206821188A4204BF116852685F
:10499000626004BF091821605C60C7E738BD00BFD2
:1049A0007C5B0010F8B5CD1C25F0030508350C2DF7
:1049B00038BF0C25002D064601DBA94203D90C2384
:1049C00033600020F8BD03F0ABFC21490A681446AF
:1049D0009CB9204F3B6823B92146304601F074F85A
:1049E00038602946304601F06FF8431C23D10C2370
:1049F0003360304603F09AFCE3E723685B1B17D46F
:104A00000B2B03D923601C44256004E06368A24299
:104A10000CBF0B605360304603F088FC04F10B00C0
:104A2000231D20F00700C21ACCD01B1AA350C9E7DF
:104A300022466468CCE7C41C24F00304A042E3D0FF
:104A4000211A304601F040F80130DDD1CFE700BF38
:104A50007C5B0010805B00109368013B002B10B45E
:104A6000936008DA9469A34201DB0A2903D15DF857
:104A7000044B01F0A5BF1368581C1060197008465C
:104A80005DF8044B7047F8B506460F461446D51836
:104A9000AC4201D1002007E03A4614F8011B304631
:104AA000FFF7DAFF431CF3D1F8BDFFFF2DE9F04F0C
:104AB0000D469DB014461E46074618B183690BB9D2
:104AC00002F09EFF854B9D421BD17D686B6ED9071E
:104AD00005D4AB899A0502D4A86DFFF7D2FEAB8945
:104AE0001B0701D52B69EBB92946384601F0BAFFFF
:104AF000C0B16B6ED8070ED54FF0FF301DB0BDE8CA
:104B0000F08F774B9D4201D1BD68DFE7754B9D4229
:104B100008BFFD68DAE7AB899905EDD4A86DFFF70A
:104B2000B1FEE9E70023099320238DF82930DFF84F
:104B3000B891039630238DF82A304FF0010A2346AE
:104B40001E4613F8012B0AB1252AF9D1B6EB040B46
:104B50000BD05B46224629463846FFF794FF0130CA
:104B600000F0A380099B5B4409933378002B00F08D
:104B70009C8000234FF0FF32CDE9052301360493DA
:104B800007938DF853301A933446052214F8011B0D
:104B9000554803F075FB049BC0B9DA0644BF2022D8
:104BA0008DF85320180744BF2B228DF853203278FC
:104BB0002A2A13D0079A344600200A26214611F8E3
:104BC000013B303B092B4BD970B914E0A0EB090035
:104BD0000AFA00F0184304902646D5E7039A111DFF
:104BE00012680391002A01DB079204E0524243F06D
:104BF00002030792049323782E2B0CD163782A2B7F
:104C000033D1039B1A1D1B680392002BB8BF4FF0D2
:104C1000FF3302340593354E21780322304603F0EA
:104C20002FFB38B14023801B03FA00F0049B0343A1
:104C30000134049314F8011B2D488DF82810062226
:104C400003F01EFB00283FD02A4B13BB039B073306
:104C500023F0070308330393099B434409936EE74A
:104C600006FB023201200C46A8E70023013405931D
:104C700019460A26204610F8012B303A092A03D992
:104C8000002BC8D00591C6E706FB0121012304468D
:104C9000F0E703AB00932A46174B04A9384600F00F
:104CA000BDF8B0F1FF3F8046D6D16B6ED90705D471
:104CB000AB899A0502D4A86DFFF7E4FDAB895B06CA
:104CC0003FF51AAF099819E703AB00932A460A4B40
:104CD00004A9384600F042FBE3E700BFE0A600006D
:104CE00000A70000C0A6000014A600001AA600003D
:104CF0001EA600001D4E0000874A00002DE9FF4758
:104D000055EC104B002D0E4691461946DDF830A0AB
:104D10004FF0000203DA05F100431D462D220D9FDE
:104D20000A7027F02007462F04D0452F00D1013606
:104D3000022100E0032103AB019302AB0093324652
:104D4000534645EC104B01F087FF472F804602D1B8
:104D500019F0010F22D0462F08EB060911D198F85F
:104D60000030302B0AD1002200232046294604F0CF
:104D700093FB18B9C6F10106CAF80060DAF80030F2
:104D80009944002200232046294604F085FB08B1FF
:104D9000CDF80C903022039B4B4508D3039B0E9A11
:104DA000A3EB08034046136004B0BDE8F087591C2C
:104DB00003911A70EFE7F7B50029BABF49422D23D6
:104DC0002B2309290270437021DD0DF107031F46D3
:104DD0000A2691FBF6F206FB12143034632903F124
:104DE000FF3503F8014C0ADC303205F8012C023B98
:104DF000821CBB42144605D3201A03B0F0BD2B46DB
:104E00001146E6E713F8011B02F8011BF1E7302316
:104E100019448370041DC170EEE7FFFF2DE9F04FC8
:104E20008DB00C46DDF8588016461F46054603F047
:104E3000ADF903680693184600F03EFF00230A937D
:104E4000D8F800300790073323F0070303F1080276
:104E500094F818A0D4F800B0C8F80020D3E90023D3
:104E6000C4E9122394ED127B8DED047BDDE904830C
:104E700023F000494FF0FF32A64B4046494604F06C
:104E80003DFB70BB4FF0FF32A24B4046494604F059
:104E900017FB30BB00220023DDE9040104F006FB10
:104EA00010B12D2384F843309B4A9C4BBAF1470F35
:104EB00094BF9046984603232BF00402236122609E
:104EC0004FF00009009733460BAA2146284600F010
:104ED000CFF9013040F08C804FF0FF300DB0BDE8CD
:104EE000F08FDDE904231046194604F007FB40B1BA
:104EF000059B8B4A002BBCBF2D2384F84330894B84
:104F0000D4E763685A1C0AF0DF093ED106236360C8
:104F1000002303930AAB4BF48062CDE901A309ABF4
:104F20000093616822600DF123039DED040B284678
:104F3000FFF7E4FEB9F1470F8046099908D1C81C74
:104F400002DB6368994241DDAAF1020A5FFA8AFA3C
:104F5000BAF1650F20D80139524604F15000099189
:104F6000FFF729FF0A9A1318012A8146236102DC00
:104F70002268D20701D5013323619DF82330002B2D
:104F8000A0D02D2384F843309CE7B9F1470FBFD15F
:104F9000002BBDD10123BAE7BAF1660F18D1002961
:104FA00063680BDD216113B92268D00702D5013394
:104FB0000B442361A1654FF00009DEE713B92268B5
:104FC000D20701D50233F4E70123F2E74FF0670A75
:104FD0000A9B994205DB23682161D807EAD54B1C5F
:104FE000E7E70029D4BFC1F1020201221344E0E740
:104FF00023685A0507D42369424631462846B847F4
:1050000001302BD168E7BAF1650F40F2DC80002255
:105010000023D4E9120104F03FFA002833D0012321
:10502000414A31462846B84701303FF455AFDDE9E3
:1050300009239A4202DB2368D8070FD5DDE906234E
:1050400031462846B84701303FF446AF4FF00008DC
:1050500004F11A090A9B013B434509DC23689B07BD
:1050600000F10181E0680B9B9842B8BF184635E714
:1050700001234A4631462846B84701303FF42CAF59
:1050800008F10108E6E7099B002B2BDC0123264AE7
:1050900031462846B84701303FF41EAFDDE9092309
:1050A000134302D12368D907D8D5DDE90623314659
:1050B0002846B84701303FF40FAF4FF0000904F124
:1050C0001A0A099B5B424B4501DC0A9B94E70123CA
:1050D000524631462846B84701303FF4FDAE09F14B
:1050E0000109EEE70A9AA36D9A42A8BF1A46002A60
:1050F000914607DD1346314642462846B8470130FF
:105100003FF4EAAE04F11A034FF0000B29EAE97903
:10511000049315E0FFFFEF7F25A6000029A60000FD
:105120002DA6000031A600000C9F00000123049A68
:1051300031462846B84701303FF4CEAE0BF1010BA3
:10514000D4F858A0AAEB09035B45EFDCDDE909239D
:105150009A421BDB2368DA0718D4DDE9092392455C
:105160001CDBA3EB0A09B9F1000F08DD4B4608EB85
:105170000A0231462846B84701303FF4ADAE4FF041
:10518000000829EAE97904F11A0A14E0DDE90623A6
:1051900031462846B8470130DFD19DE6A3EB02092E
:1051A000E1E70123524631462846B84701303FF433
:1051B00093AE08F10108DDE909239B1AA3EB09036B
:1051C0004345EEDC4AE70A9A012A01DCDB0737D5C2
:1051D0000123424631462846B84701303FF47CAEB1
:1051E000DDE9062331462846B84701303FF474AE66
:1051F00000220023D4E9120104F04EF9D8B90A9B29
:1052000008F10102013B31462846B84701300ED172
:1052100062E60123524631462846B84701303FF442
:105220005BAE08F101080A9B013B4345F1DC4B46AC
:1052300004F15002E1E64FF0000804F11A0AF2E727
:1052400001234246DFE701234A4631462846B84754
:1052500001303FF441AE08F10108E3680B9A9B1A54
:105260004345F0DCFEE64FF0000804F11909F4E7CD
:105270002DE9F04791461F468A680B69DDF82080CA
:105280009342B8BF1346C9F8003091F84320064650
:105290000C4612B10133C9F800302368990642BFA9
:1052A000D9F800300233C9F80030256815F006053A
:1052B00007D104F1190AE368D9F800209B1AAB4220
:1052C00028DC94F843302268003318BF012392068B
:1052D0002DD404F1430239463046C047013020D076
:1052E0002368E568D9F8002003F00603042B08BF03
:1052F000AD1AA36822690CBF25EAE5750025934223
:10530000C4BF9B1AED184FF000091A344D451AD14D
:10531000002008E00123524639463046C04701309C
:1053200003D14FF0FF30BDE8F0870135C3E7E11846
:105330005A1C302081F84300224494F8451082F82A
:1053400043100233C5E70123224639463046C047A1
:105350000130E6D009F10109D8E7FFFF2DE9F0435C
:1053600006460C4601F14300097E85B06E29984639
:1053700017460C9B00F0BA8024D8632939D00AD88C
:10538000002900F0C380582900F0918004F1420503
:1053900084F8421035E0642901D06929F6D12568E6
:1053A0001A6815F0800F02F104012CD01268196000
:1053B000002A03DA2D23524284F84330DFF8BCC1BF
:1053C0000A233FE0732900F0A58008D86F2921D077
:1053D0007029DBD1226842F02002226003E07529A7
:1053E00018D07829D2D1782284F84520DFF890C1EE
:1053F00061E01A68111D1960136884F8423004F1E5
:105400004205012393E01268196015F0400F18BFA0
:1054100012B2CDE7D4F800C01A681CF0800F02F178
:1054200004051D6001D0126803E01CF0400FFAD0A3
:105430001288DFF848C16F290CBF08230A23002116
:1054400084F843106568A560002DA2BF216821F093
:10545000040121600AB9002D46D00546B2FBF3F1E4
:1054600003FB112E93421CF80EE005F801ED39D92B
:10547000082B0BD12368DA0708D5236962689A42A2
:10548000DEBF302305F8013C05F1FF35401B2061EC
:10549000CDF800803B4603AA21463046FFF7E8FEE0
:1054A000013049D14FF0FF3005B0BDE8F083DFF89F
:1054B000CCC084F845101D68216855F8042B1D6088
:1054C0000D060BD5CD0744BF41F0200121601AB96C
:1054D000236823F0200323601023B0E74B0648BF66
:1054E00092B2EFE70A46B9E70546C1E71A68D4F871
:1054F00000C06169151D1D601CF0800F136801D08C
:10550000196003E01CF0400FFAD0198000232361DA
:105510000546BDE71A68111D19601568626800210B
:10552000284602F0ADFE08B1401B6060636823614D
:10553000002384F84330ABE723692A4639463046D6
:10554000C0470130AED023689B0713D4E068039BAB
:105550009842B8BF1846A7E701234A463946304665
:10556000C04701309ED00135E368039A9B1AAB42D5
:10557000F2DCEBE7002504F11909F5E735A6000098
:1055800046A600002DE9F04F87B0174603938B68BD
:105590005A1EB2F5AE7F83BF6FF4AE755B190293EE
:1055A000002386BF40F25D138B6002930B688B462D
:1055B000002543F4F0634BF81C3BCDE904558146CC
:1055C0000C465E46AA46A8460195A26882B13B6891
:1055D0001B78492B75D04FD8392B41D8312B80F00F
:1055E00087802D2B00F08F8017D82B2B00F08B801D
:1055F000B8F1000F03D0236823F4807323600AF10D
:10560000FF3ABAF1010F00F2DD805E4500F2CF8073
:105610000125284607B0BDE8F08F2E2B00F09380BF
:10562000302BE5D12168C80562D5029B21F08001AD
:10563000216008F101081BB1013B01320293A26015
:10564000A368013BA3602369013323617B68013BAD
:10565000002B7B6040F3A2803B6801333B60B4E7E2
:10566000452B7AD0462B64D0412BC1D1BAF1010F22
:10567000BED14FF0020A43E0652B6ED01AD8542BEE
:105680005CD013D84E2BB3D1BAF1000F42D1B8F190
:10569000000F42D1226802F4E061B1F5E06F3CD125
:1056A00022F4F06222604FF0010A29E0592B1BD04E
:1056B000612BDAE76E2BE7D012D8662B39D0692B35
:1056C00096D195BBB8F1000F95D1226802F4E06144
:1056D000B1F5E06F93D122F4F062226001250FE072
:1056E000742B2BD0792B83D1072D81D1082507E08E
:1056F0001AEB050F7FF47CAF226822F4C07222609F
:1057000006F8013B9CE7226810067FF571AF22F096
:105710008002F4E7BAF1020F3DD0012D02D0042D32
:105720007FF466AF0135EDB2EAE7032DFAD0052D1F
:10573000F6E7022D7FF45CAF0325E1E7062D7FF449
:1057400057AF0725DCE7226891057FF551AF22F4BA
:1057500020722260CDF80480D2E7226802F4A061B2
:10576000B1F5806F06D050057FF542AFB8F1000F5C
:105770003FF445AF910558BF019922F4F06258BF3C
:10578000A8EB010142F4C07258BFCDE904162260B3
:105790004FF00008B4E74FF0030AB1E7D4F88031C6
:1057A00039464846984700283FF40FAF20E7D4F821
:1057B0007C3116F8011D3A46484698472369013B5B
:1057C000236122E76B1E062B25D8022D36D85E45B5
:1057D0007FF61EAFD4F87C3116F8011D3A464846D4
:1057E00098472369013B2361F1E70298D4F87C31A3
:1057F00010F8011D02903A46484698472369013B3C
:1058000023610AF1FF3A5FFA8AFABAF1020FECD18A
:10581000033DEDB2761B2368DA052FD55B0510D565
:105820005E457FF6F5AED4F87C3116F8011D3A4698
:10583000484698472369013B2361F1E7AA4602964F
:10584000DFE716F8011C2369652903F1FF3306F130
:10585000FF3523610CD045290AD0D4F87C313A4673
:1058600048469847236916F8021C013BB51E236180
:10587000D4F87C313A46484698472E46256815F0BC
:10588000100558D13570236803F4C063B3F5806FF9
:105890001CD1019B4345A3EB080224D100225946A9
:1058A000484601F00DF8039B21681B6811F0020FB8
:1058B00057EC106B03F1040220D003990A601B68B7
:1058C000C3E90067E3680133E360A2E6049B002BB1
:1058D000E4D005990A232A460131484601F06EF8C2
:1058E000049B059EC21A04F26F139E4228BF04F562
:1058F000B7761249304600F0BFF9CFE711F0040F38
:1059000003990A60DBD1D3F8008010EE102A3B46E1
:1059100010EE100A394603F0F1FD28B1084800F0F6
:10592000A5F988ED000ACDE73046394603F044FE7C
:10593000C8F80000C6E700256BE600BF57A60000C8
:10594000C09B00000FB40A4B13B51C6824B1A369B7
:1059500013B9204602F054F805AB049AA1680193EC
:105960002046FFF7A3F802B0BDE8104004B070472E
:105970005441001070B50E46054618B183690BB945
:1059800002F03EF8AB69AC6813B9284602F038F86B
:105990002C4B9C4220D16C68636EDB0705D4A38935
:1059A000980502D4A06DFEF76CFFA38919071DD5D9
:1059B0002369DBB1013EA36816F8011F013BA36018
:1059C00039BB002B38DA22460A21284600F0F8FFBE
:1059D000013011D00A2511E01B4B9C4201D1AC686B
:1059E000DAE71A4B9C4208BFEC68D5E72146284607
:1059F00001F038F80028DDD04FF0FF35636EDA078C
:105A000005D4A3899B0502D4A06DFEF73BFF284671
:105A100070BD002B04DAA2699A4206DC0A2904D080
:105A200023685A1C22601970C5E72246284600F0F8
:105A3000C7FF0130BFD1DFE723680A255A1C226067
:105A40001D70DBE7E0A6000000A70000C0A6000074
:105A5000024B01461868FFF78DBF00BF544100108C
:105A6000134B10B51C68A36B7BB91820FEF70CFF15
:105A7000104A114BA063C0E90023104B83600B2335
:105A8000838101220023C0E90423A16B0C480A6929
:105A90004B690C4C504304FB0300A2FB04345A1C1A
:105AA000044444F10000C1E9042020F0004010BD8E
:105AB000544100100E33CDAB34126DE6ECDE050020
:105AC0002DF451582D7F954C38B5064C00230546D2
:105AD00008462360FAF736FC431C02D1236803B161
